:100000000C945D000C9485000C9485000C94850084
:100010000C9485000C9485000C9485000C9485004C
:100020000C9485000C9485000C9485000C9485003C
:100030000C9485000C9485000C9485000C9485002C
:100040000C9414040C9485000C94E2030C94BC03EF
:100050000C9485000C9485000C9485000C9485000C
:100060000C9485000C9485000000000024002700FB
:100070002A0000000000250028002B0004040404CE
:100080000404040402020202020203030303030342
:10009000010204081020408001020408102001021F
:1000A00004081020000000080002010000030407FB
:1000B00000000000000000005E0411241FBECFEF0E
:1000C000D8E0DEBFCDBF22E0A6E6B1E001C01D92C0
:1000D000AF36B207E1F711E0A0E0B1E0E6E6F4E107
:1000E00002C005900D92A636B107D9F710E0CDE514
:1000F000D0E004C02197FE010E94260ACC35D1072A
:10010000C9F70E94B3040C94310A0C940000E7E78D
:10011000F1E0A089B18982E08C93A485B5851C9219
:10012000A685B78587E68C93108EA489B58986E06D
:100130008C93A289B3898C9180618C93A289B389B5
:100140008C9188608C93A289B3898C9180688C9300
:100150000288F389E02D80818F7D80830895E6EA0F
:10016000F0E02491E2E9F0E09491EEE7F0E0E49130
:10017000EE2309F43BC0222339F1233091F038F407
:100180002130A9F0223001F524B52F7D12C027308F
:1001900091F02830A1F02430B9F4209180002F7D17
:1001A00003C0209180002F77209380000DC024B5DC
:1001B0002F7724BD09C02091B0002F7703C0209174
:1001C000B0002F7D2093B000F0E0EE0FFF1FEE583F
:1001D000FF4FA591B4912FB7F894EC91811103C012
:1001E00090959E2301C09E2B9C932FBF0895CF9284
:1001F000DF92EF92FF920F931F93CF93DF936C01E7
:100200007A018B01C0E0D0E0CE15DF0589F0D8017E
:100210006D918D01D601ED91FC910190F081E02D61
:10022000C6010995892B11F47E0102C02196ECCFFD
:10023000C701DF91CF911F910F91FF90EF90DF9059
:10024000CF900895089580E090E00895FC01538DCB
:10025000448D252F30E0842F90E0821B930B5417A0
:1002600010F0CF96089501970895FC01918D828D2D
:10027000981761F0828DDF01A80FB11D5D968C91FA
:10028000928D9F5F9F73928F90E008958FEF9FEF05
:100290000895FC01918D828D981731F0828DE80FC1
:1002A000F11D858D90E008958FEF9FEF0895FC017B
:1002B000918D228D892F90E0805C9F4F821B910948
:1002C0008F739927089587E791E00E94570121E0F5
:1002D000892B09F420E0822F0895FC01848DDF0131
:1002E000A80FB11DA35ABF4F2C91848D90E00196A9
:1002F0008F739927848FA689B7892C93A089B18998
:100300008C9180648C93938D848D981306C00288A1
:10031000F389E02D80818F7D80830895EF92FF9295
:100320000F931F93CF93DF93EC0181E0888F9B8D18
:100330008C8D981305C0E889F989808185FD24C0DA
:10034000F62E0B8D10E00F5F1F4F0F731127E02E5D
:100350008C8DE8120CC00FB607FCFACFE889F9893A
:10036000808185FFF5CFCE010E946D01F1CF8B8D8D
:10037000FE01E80FF11DE35AFF4FF0820B8FEA896F
:10038000FB898081806207C0EE89FF896083E889EC
:10039000F98980818064808381E090E0DF91CF9152
:1003A0001F910F91FF90EF900895CF93DF93EC0191
:1003B000888D8823C9F0EA89FB89808185FD05C085
:1003C000A889B9898C9186FD0FC00FB607FCF5CFBF
:1003D000808185FFF2CFA889B9898C9185FFEDCF07
:1003E000CE010E946D01E7CFDF91CF91089580E0AB
:1003F00090E0892B29F00E94630181110C94000088
:1004000008958E3008F08E508770806480937C0051
:1004100080917A00806480937A0080917A0086FDD2
:10042000FCCF809178002091790090E0922B089584
:100430003FB7F89480916B0190916C01A0916D0190
:10044000B0916E0126B5A89B05C02F3F19F001960B
:10045000A11DB11D3FBFBA2FA92F982F8827820F4A
:10046000911DA11DB11DBC01CD0142E0660F771F9A
:10047000881F991F4A95D1F708952FB7F894609176
:100480006701709168018091690190916A012FBFA5
:1004900008958F929F92AF92BF92CF92DF92EF9288
:1004A000FF926B017C010E943D024B015C01C60E74
:1004B000D71EE81EF91E0E943D02681579058A05BF
:1004C0009B0528F0C616D706E806F906A0F7FF90A8
:1004D000EF90DF90CF90BF90AF909F908F90089556
:1004E0000E942C0A6115710579F0FB010190002032
:1004F000E9F73197AF01461B570BDC01ED91FC91F9
:100500000280F381E02D099480E090E008954F92FD
:100510005F926F927F92EF92FF920F931F93CF9310
:10052000DF93CDB7DEB7A1970FB6F894DEBF0FBE4D
:10053000CDBF7C01FA01CB0119A2223008F42AE0D8
:100540008E010F5D1F4F422E512C612C712CBF016B
:10055000A30192010E948D08F901CA0101501109FD
:100560006A3014F4605D01C0695CD8016C93232B80
:10057000242B252B61F7B801C7010E947202A196B6
:100580000FB6F894DEBF0FBECDBFDF91CF911F91A4
:100590000F91FF90EF907F906F905F904F90089534
:1005A0004F925F926F927F928F929F92AF92BF9283
:1005B000CF92DF92EF92FF926B017C01B42E9B01F0
:1005C000AC010E94210A882319F062E171E027C082
:1005D00026013701E89477F82FEF3FEF4FE75FE709
:1005E000C301B2010E94210A81110DC02FEF3FEF1C
:1005F0004FE75FE7C301B2010E94690718161CF4B8
:1006000066E171E00CC02FEF3FEF4FE75FE4C701F9
:10061000B6010E941C0A181694F46AE171E087E79B
:1006200091E0FF90EF90DF90CF90BF90AF909F90C0
:100630008F907F906F905F904F900C9472022FEF8D
:100640003FEF4FE75FECC701B6010E94690787FDE6
:10065000E4CF20E030E0A901C701B6010E9469079C
:1006600087FF11C0E0917701F09178010190F0814E
:10067000E02D6DE287E791E009954C01F7FAF094DF
:10068000F7F8F09402C0812C912CA12C60E070E06E
:1006900080E09FE3AB1441F020E030E040E251E421
:1006A0000E941C09A394F6CF9B01AC01C701B601BF
:1006B0000E94B0082B013C010E9495096B017C014E
:1006C0000E946E079B01AC01C301B2010E94AF08FA
:1006D0002B013C012AE0B701A60187E791E00E94C7
:1006E00087027C01E80CF91CBB2069F0E0917701DE
:1006F000F09178010190F081E02D6EE287E791E0C2
:100700000995E80EF91EDB2CDD2031F120E030E008
:1007100040E251E4C301B2010E94CF072B013C012A
:100720000E9495094B01A12CB12C2AE0B501A4012E
:1007300087E791E00E948702E80EF91EC501B40127
:100740000E946E079B01AC01C301B2010E94AF0879
:100750002B013C01DA94D8CFC701FF90EF90DF90D6
:10076000CF90BF90AF909F908F907F906F905F9051
:100770004F9008950C9472021F920F920FB60F9231
:1007800011242F933F934F935F936F937F938F9396
:100790009F93AF93BF93EF93FF9387E791E00E94FE
:1007A0006D01FF91EF91BF91AF919F918F917F91DB
:1007B0006F915F914F913F912F910F900FBE0F90CE
:1007C0001F9018951F920F920FB60F9211242F931E
:1007D0008F939F93EF93FF93E0918701F0918801AE
:1007E0008081E0918D01F0918E0182FD12C0908197
:1007F000809190018F5F8F7320919101821751F04A
:10080000E0919001F0E0E958FE4F958F80939001C0
:1008100001C08081FF91EF919F918F912F910F9057
:100820000FBE0F901F9018951F920F920FB60F9248
:1008300011242F933F938F939F93AF93BF938091F6
:10084000670190916801A0916901B0916A013091AE
:10085000660123E0230F2D3720F40196A11DB11D61
:1008600005C026E8230F0296A11DB11D2093660145
:100870008093670190936801A0936901B0936A0126
:1008800080916B0190916C01A0916D01B0916E010E
:100890000196A11DB11D80936B0190936C01A093F3
:1008A0006D01B0936E01BF91AF919F918F913F9178
:1008B0002F910F900FBE0F901F901895E7E7F1E072
:1008C0001382128288EE93E0A0E0B0E084839583E7
:1008D000A683B78384E091E09183808385EC90E0E8
:1008E0009587848784EC90E09787868780EC90E0FA
:1008F000918B808B81EC90E0938B828B82EC90E0EB
:10090000958B848B86EC90E0978B868B118E128E64
:10091000138E148EE4E1F2E016821782108611869F
:10092000128613861486158616861786108A118AF3
:10093000128A138A148A158A81E090E090936E02DD
:1009400080936D02ECE5F2E082E390E09183808396
:100950008AEF90E09383828388E893E19583848390
:10096000178216820895789484B5826084BD84B518
:10097000816084BD85B5826085BD85B5816085BD9A
:1009800080916E00816080936E0010928100809152
:1009900081008260809381008091810081608093DA
:1009A0008100809180008160809380008091B100FF
:1009B00084608093B1008091B00081608093B0002A
:1009C00080917A00846080937A0080917A008260BE
:1009D00080937A0080917A00816080937A00809180
:1009E0007A00806880937A001092C10010925802B9
:1009F0001092590210925A0210925B021092160243
:100A000010921702109218021092190268EB7BE004
:100A100080E090E00E94490287E791E090935702BE
:100A2000809356020E9487000E943D026093160246
:100A30007093170280931802909319026EE171E08F
:100A400080915602909157020E94BA036AE070E0CA
:100A500080E090E00E94490281E080932A02E2E96E
:100A6000F0E02491EEE7F0E08491882399F090E0A3
:100A7000880F991FFC01E859FF4FA591B491FC0123
:100A8000EE58FF4F859194918FB7F894EC91E22B3B
:100A9000EC938FBF0E94870024EFC22EDD24D394F5
:100AA000E12CF12C11E00E943D02672B682B692B91
:100AB00041F40E943D02623071058105910508F400
:100AC0000BC10E943D026093730170937401809387
:100AD00075019093760180906F0190907001A090C5
:100AE0007101B0907201681579058A059B0540F483
:100AF00060936F0170937001809371019093720104
:100B000080906F0190907001A0907101B09072017F
:100B10009B01AC01281939094A095B0949015A01AD
:100B20003AEF83169104A104B10408F4D5C0609390
:100B30006F01709370018093710190937201C09264
:100B40002202D0922302E0922402F0922502109217
:100B500026021092270210922802109229028091F8
:100B60001A0290911B02A0911C02B0911D02809369
:100B70001E0290931F02A0932002B09321020E94B4
:100B80003D0260931A0270931B0280931C029093A3
:100B90001D020E943D02609316027093170280931B
:100BA0001802909319020E943D024B015C0160E320
:100BB00071E080915602909157020E94BA032AE098
:100BC00041E050E060E070E0809156029091570261
:100BD0000E94870267E371E080915602909157026C
:100BE0000E94BA032AE0B501A401809156029091B7
:100BF00057020E94870269E371E08091560290914A
:100C000057020E94BA0380911A0290911B02A09190
:100C10001C02B0911D02B501A401481B590B6A0BBF
:100C20007B0B2AE080915602909157020E94870226
:100C300069E371E080915602909157020E94BA03D5
:100C400040911A0250911B0260911C0270911D028A
:100C500080911E0290911F02A0912002B09121026A
:100C6000481B590B6A0B7B0B2AE08091560290912E
:100C700057020E9487026BE371E0809156029091C7
:100C800057020E94BA030E943D02AB01BC012AE058
:100C900080915602909157020E948702C09156029D
:100CA000D09157026DE371E0CE010E9472026DE2B5
:100CB00071E0CE010E94720262E070E080E090E09C
:100CC0000E9449020E943D0260931A0270931B0227
:100CD00080931C0290931D0280916D020E9401027C
:100CE000EC016091690270916A0280916B029091AF
:100CF0006C020E948E09CE010597681779070CF4E3
:100D0000D9C00A96861797070CF4D4C020E030E0CB
:100D100040E85AE36091690270916A0280916B0227
:100D200090916C020E94CF0720E030E048EC52E442
:100D30000E94CF070E94C4092B013C0180916202EE
:100D40000E940102BC01990F880B990B0E94700749
:100D50004B015C01C0915C02D0915D0220E030E06B
:100D600048EC52E4C301B2010E941C092B013C0172
:100D700060915E0270915F026C1B7D0B072E000C70
:100D8000880B990B0E9470079B01AC01C301B20153
:100D90000E94CF072B013C01BE01DD0F880B990B90
:100DA0000E9470079B01AC01C301B2010E94B00810
:100DB0002B013C019B01AC01C501B4010E941C0A3E
:100DC00018164CF50E943D02609364027093650210
:100DD00080936602909367021093680264E471E066
:100DE00087E791E00E94BA0342E0C501B4010E9486
:100DF000D00267E571E087E791E00E94BA0342E024
:100E0000C301B2010E94D0026DE271E087E791E078
:100E10000E9472021DC00E943D022091600230912A
:100E200061022901330F6608770880906402909070
:100E30006502A0906602B0906702840C951CA61C07
:100E4000B71C86169706A806B90614F41092680215
:100E500080916802882311F081E001C080E00E9447
:100E6000AF000E9418024B015C0192E0492E512C08
:100E7000612C712C0E941802DC01CB0188199909A0
:100E8000AA09BB09883E9340A105B10598F348EE35
:100E9000840E43E0941EA11CB11C4A9445284628A8
:100EA000472829F0412C512C32014394E3CF0E9472
:100EB000F701F9CDBE01DD0F880B990B0E94700779
:100EC0006093690270936A0280936B0290936C0244
:100ED0001DCF0E94AB0708F481E00895E89409C093
:100EE00097FB3EF490958095709561957F4F8F4F5D
:100EF0009F4F9923A9F0F92F96E9BB279395F69573
:100F0000879577956795B795F111F8CFFAF4BB0FF0
:100F100011F460FF1BC06F5F7F4F8F4F9F4F16C054
:100F2000882311F096E911C0772321F09EE8872FDE
:100F3000762F05C0662371F096E8862F70E060E09A
:100F40002AF09A95660F771F881FDAF7880F969513
:100F5000879597F90895990F0008550FAA0BE0E8B7
:100F6000FEEF16161706E807F907C0F0121613066B
:100F7000E407F50798F0621B730B840B950B39F4AB
:100F80000A2661F0232B242B252B21F408950A2611
:100F900009F4A140A6958FEF811D811D08950E943F
:100FA000E2070C9453080E94450838F00E944C0850
:100FB00020F0952311F00C943C080C944208112465
:100FC0000C9487080E94640870F3959FC1F3950FF5
:100FD00050E0551F629FF001729FBB27F00DB11DBD
:100FE000639FAA27F00DB11DAA1F649F6627B00D4D
:100FF000A11D661F829F2227B00DA11D621F739F36
:10100000B00DA11D621F839FA00D611D221F749F43
:101010003327A00D611D231F849F600D211D822F8A
:10102000762F6A2F11249F5750409AF0F1F08823B1
:101030004AF0EE0FFF1FBB1F661F771F881F9150DE
:101040005040A9F79E3F510580F00C943C080C9449
:1010500087085F3FE4F3983ED4F3869577956795CC
:10106000B795F795E7959F5FC1F7FE2B880F911D08
:101070009695879597F9089597F99F6780E870E0AE
:1010800060E008959FEF80EC089500240A941616FE
:10109000170618060906089500240A941216130666
:1010A000140605060895092E0394000C11F48823F4
:1010B00052F0BB0F40F4BF2B11F460FF04C06F5F10
:1010C0007F4F8F4F9F4F089557FD9058440F551FE6
:1010D00059F05F3F71F04795880F97FB991F61F0BA
:1010E0009F3F79F087950895121613061406551F31
:1010F000F2CF4695F1DF08C0161617061806991F9D
:10110000F1CF86957105610508940895E894BB2791
:1011100066277727CB0197F90895A1E21A2EAA1B1B
:10112000BB1BFD010DC0AA1FBB1FEE1FFF1FA21797
:10113000B307E407F50720F0A21BB30BE40BF50B94
:10114000661F771F881F991F1A9469F7609570951D
:10115000809590959B01AC01BD01CF010895505839
:10116000BB27AA270E94C7080C9453080E94450871
:1011700038F00E944C0820F039F49F3F19F426F40F
:101180000C9442080EF4E095E7FB0C943C08E92F20
:101190000E94640858F3BA1762077307840795071B
:1011A00020F079F4A6F50C9486080EF4E0950B2E49
:1011B000BA2FA02D0B01B90190010C01CA01A001A9
:1011C0001124FF27591B99F0593F50F4503E68F104
:1011D0001A16F040A22F232F342F4427585FF3CF45
:1011E000469537952795A795F0405395C9F77EF416
:1011F0001F16BA0B620B730B840BBAF09150A1F05F
:10120000FF0FBB1F661F771F881FC2F70EC0BA0FE4
:10121000621F731F841F48F4879577956795B7956C
:10122000F7959E3F08F0B0CF9395880F08F0992767
:10123000EE0F9795879508950E9430090C945308F6
:101240000E944C0858F00E94450840F029F45F3F86
:1012500029F00C943C0851110C9487080C94420816
:101260000E94640868F39923B1F3552391F3951B09
:10127000550BBB27AA2762177307840738F09F5FB7
:101280005F4F220F331F441FAA1FA9F335D00E2E24
:101290003AF0E0E832D091505040E695001CCAF791
:1012A0002BD0FE2F29D0660F771F881FBB1F261754
:1012B00037074807AB07B0E809F0BB0B802DBF012B
:1012C000FF2793585F4F3AF09E3F510578F00C94FA
:1012D0003C080C9487085F3FE4F3983ED4F386956E
:1012E00077956795B795F7959F5FC9F7880F911D1B
:1012F0009695879597F90895E1E0660F771F881F07
:10130000BB1F621773078407BA0720F0621B730BB9
:10131000840BBA0BEE1F88F7E09508950E9495099B
:101320006894B1110C94870808950E946C0888F0A5
:101330009F5798F0B92F9927B751B0F0E1F0660F99
:10134000771F881F991F1AF0BA95C9F714C0B130DA
:1013500091F00E948608B1E008950C948608672FEA
:10136000782F8827B85F39F0B93FCCF38695779509
:101370006795B395D9F73EF49095809570956195F2
:101380007F4F8F4F9F4F08950E94040A90F09F3720
:1013900048F4911116F00C94870860E070E080E842
:1013A0009FEB089526F41B16611D711D811D0C9481
:1013B000DB090C94F609882371F4772321F0985007
:1013C000872B762F07C0662311F499270DC0905103
:1013D000862B70E060E02AF09A95660F771F881FD1
:1013E000DAF7880F9695879597F908959F3F31F022
:1013F000915020F4879577956795B795880F911D43
:101400009695879597F908950E946C08A0F0BEE71D
:10141000B91788F4BB279F3860F41616B11D672FE3
:10142000782F8827985FF7CF869577956795B11DB8
:1014300093959639C8F308950E94AB0708F48FEF8F
:1014400008950E94AB07880B990B0895EE0FFF1FBC
:101450000590F491E02D099481E090E0F8940C94CB
:06146000310AF894FFCFF1
:10146600000000008E01F7002601D5015701350165
:1014760049016E616E00696E66006F766600564DB4
:101486004450565F317C315F564D4450560D0A002C
:10149600564D4450455F003A323A007C005F564D47
:1014A60044504500547269676765726564207661C9
:1014B6006C7565203A2000207468726573686F6CDD
:0614C60064203A20000042
:107E0000112484B714BE81FFF0D085E080938100F7
:107E100082E08093C00088E18093C10086E0809377
:107E2000C20080E18093C4008EE0C9D0259A86E02C
:107E300020E33CEF91E0309385002093840096BBD3
:107E4000B09BFECF1D9AA8958150A9F7CC24DD24C4
:107E500088248394B5E0AB2EA1E19A2EF3E0BF2EE7
:107E6000A2D0813461F49FD0082FAFD0023811F036
:107E7000013811F484E001C083E08DD089C08234E0
:107E800011F484E103C0853419F485E0A6D080C0E4
:107E9000853579F488D0E82EFF2485D0082F10E0AE
:107EA000102F00270E291F29000F111F8ED06801E7
:107EB0006FC0863521F484E090D080E0DECF843638
:107EC00009F040C070D06FD0082F6DD080E0C81688
:107ED00080E7D80618F4F601B7BEE895C0E0D1E017
:107EE00062D089930C17E1F7F0E0CF16F0E7DF06D8
:107EF00018F0F601B7BEE89568D007B600FCFDCFD4
:107F0000A601A0E0B1E02C9130E011968C91119780
:107F100090E0982F8827822B932B1296FA010C0160
:107F200087BEE89511244E5F5F4FF1E0A038BF0790
:107F300051F7F601A7BEE89507B600FCFDCF97BE46
:107F4000E89526C08437B1F42ED02DD0F82E2BD052
:107F50003CD0F601EF2C8F010F5F1F4F84911BD097
:107F6000EA94F801C1F70894C11CD11CFA94CF0C13
:107F7000D11C0EC0853739F428D08EE10CD085E9AC
:107F80000AD08FE07ACF813511F488E018D01DD067
:107F900080E101D065CF982F8091C00085FFFCCF94
:107FA0009093C60008958091C00087FFFCCF809118
:107FB000C00084FD01C0A8958091C6000895E0E648
:107FC000F0E098E1908380830895EDDF803219F02E
:107FD00088E0F5DFFFCF84E1DECF1F93182FE3DFCA
:107FE0001150E9F7F2DF1F91089580E0E8DFEE27F6
:047FF000FF270994CA
:027FFE00040479
:0400000300007E007B
:00000001FF